:020000040800F2
:1000000000800220410F0008910F0008910F0008A6
:10001000910F0008910F0008910F000800000000E8
:10002000000000000000000000000000910F000828
:10003000910F000800000000910F0008910F0008C8
:10004000910F0008910F0008910F0008910F000810
:10005000910F0008910F0008910F0008910F000800
:10006000910F0008910F0008910F0008910F0008F0
:10007000910F0008910F0008910F0008910F0008E0
:10008000910F0008910F0008910F0008910F0008D0
:10009000910F0008910F0008910F0008910F0008C0
:1000A000910F0008910F0008910F0008910F0008B0
:1000B000910F0008910F000800000000910F000848
:1000C000910F0008910F0008910F0008910F000890
:1000D000910F0008910F0008910F0008910F000880
:1000E000910F0008910F00080000000000000000C0
:1000F0000000000000000000000000000000000000
:1001000000000000910F000800000000910F00089F
:10011000910F000800000000910F0008000000008F
:10012000910F0008910F0008910F0008910F00082F
:10013000910F0008910F0008910F000800000000C7
:10014000910F0008910F0008910F000800000000B7
:10015000910F0008910F0008910F0008910F0008FF
:10016000910F0008910F0008910F00080000000097
:1001700000000000910F00080000000000000000D7
:10018000910F0008910F0008910F0008910F0008CF
:04019000910F0008C3
:100198000348044B834202D0034B03B1184770470E
:1001A80038040020380400200000000005480649F3
:1001B8000B1AD90F01EBA301491002D0034B03B16D
:1001C8001847704738040020380400200000000059
:1001D80010B5064C237843B9FFF7DAFF044B13B187
:1001E8000448AFF300800123237010BD38040020B9
:1001F80000000000A80F000808B5044B1BB1044913
:100208000448AFF30080BDE80840CFE700000000D5
:100218003C040020A80F0008A3F5803A704700BFEF
:10022800154B002B08BF114B9D46FFF7F5FF00212A
:100238008B460F461148124A121A00F037FD0C4B34
:10024800002B00D098470B4B002B00D0984700207C
:10025800002104000D000B4800F0D8FC00F002FD5E
:100268002000290000F008FE00F0D6FC000008007D
:10027800000000000000000000000000380400201A
:1002880060040020410C00080B498B6D4FF0804240
:1002980043F0010304208B65906213684FF6FF71E9
:1002A80023F080031360D162136843F001031360E5
:1002B8001369DB07FCD570470010024082B04FF08D
:1002C8008041ADF8060000234A6A4B624A6ABDF8CD
:1002D80006309BB29A42F9D302B0704710B485B089
:1002E8000024ADF80600ADF80E40BDF80E20BDF8AC
:1002F800063092B29BB29A4215D24FF08042536AAE
:100308005462536AB3F57A7FFBD3BDF80E300133DC
:100318009BB2ADF80E30BDF80E10BDF8063089B2AC
:100328009BB29942EBD305B05DF8044B704700BF10
:10033800384A394BD06C40F4005040F00600D06485
:10034800D2F8880020F04050C2F88800D2F888001F
:1003580040F04050C2F888009A6822F000529A6033
:100368009A6842F001029A609A6882B0002142F0CD
:1003780080529A60ADF80610BDF806309BB20A2B81
:1003880012D24FF08042536A5162536AB3F57A7FB2
:10039800FBD3BDF8063001339BB2ADF80630BDF88B
:1003A80006309BB20A2BEED31B4B1C4AD96821F0AE
:1003B8001801D960D96841F40051D960D96821F091
:1003C8002001D960596921F03F015961596941F00B
:1003D8003F015961196B21F00F011963196B41F045
:1003E80001011963002011681060116841F00F01C4
:1003F8001160DA6842F00102DA601A6B22F4734283
:1004080022F0C0021A631A6B42F482521A6302B0D5
:10041800704700BF00100240000004500008004868
:100428000B490C4B8A6C42F001028A649A6822F0EC
:1004380010029A609A6842F020029A609A6842F024
:1004480080029A609A6842F4A0629A60704700BF7E
:10045800001002400000024084B0094B0390029152
:100468008DF807209DF80720D2B2DA60039A1A6146
:10047800029A5A619A6842F001029A6004B0704781
:1004880000000240134B1A6842F001021A609A6891
:1004980082B0002142F001029A60ADF80610BDF862
:1004A80006309BB20A2B12D24FF08042536A516237
:1004B800536AB3F57A7FFBD3BDF8063001339BB29C
:1004C800ADF80630BDF806309BB20A2BEED302B069
:1004D800704700BF00000450024A936843F00403C9
:1004E80093607047000004501149124BD1F88820DE
:1004F80042F4700210B4C1F888201A68002042F053
:1005080001021A6098601A6822F0A8524FF48054C9
:1005180022F410221A60DC601A684FF0006422F49A
:1005280080221A6098618C605DF8044B704700BFA8
:1005380000ED00E000100240274B27481A682749C1
:10054800120754BFD3F894301B68826854BFC3F3B2
:100558000323C3F3031302F00C02082A10B451F862
:10056800233012D00C2A12D01D48042A08BF034693
:10057800194A1C4892685DF8044BC2F303121144EF
:1005880091F83020D34003607047174BF0E7C468F8
:10059800C26804F00300C2F30212022802F1010249
:1005A80015D0032810D1104BB3FBF2F30A4AD068D8
:1005B800D268C2F34162C0F30620013200FB03F3A4
:1005C8005200B3FBF2F3D3E7B3FBF2F3EEE7044BCD
:1005D800B3FBF2F3EAE700BF00100240E80F00089F
:1005E8000024F4000400002000127A006C100008B7
:1005F8000000002038040020380400206004002097
:1006080070B54FF0FF0C4CF4E06C1CEA11541DBFA0
:100618001CEA135594EA0C0F95EA0C0F00F0DEF86B
:100628002C4481EA030621EA4C5123EA4C5350EA50
:10063800013518BF52EA033541F4801143F48013A1
:1006480038D0A0FB02CE4FF00005E1FB02E506F032
:100658000042E0FB03E54FF00006E1FB03569CF087
:10066800000F18BF4EF0010EA4F1FF04B6F5007F8D
:1006780064F5407404D25FEA4E0E6D4146EB0606FF
:1006880042EAC62141EA55514FEAC52040EA5E5088
:100698004FEACE2EB4F1FD0C88BFBCF5E06F1ED832
:1006A800BEF1004F08BF5FEA500E50F1000041EB69
:1006B800045170BD06F0004646EA010140EA020016
:1006C80081EA0301B4EB5C04C2BFD4EB0C0541EA38
:1006D800045170BD41F480114FF0000E013C00F34D
:1006E800AB8014F1360FDEBF002001F0004170BD71
:1006F800C4F10004203C35DA0C341BDC04F114048A
:10070800C4F1200500FA05F320FA04F001FA05F215
:1007180040EA020001F0004221F0004110EBD370E2
:1007280021FA04F642EB06015EEA430E08BF20EA0E
:10073800D37070BDC4F10C04C4F1200500FA04F3B1
:1007480020FA05F001FA04F240EA020001F0004143
:1007580010EBD37041F100015EEA430E08BF20EAB6
:10076800D37070BDC4F1200500FA05F24EEA020EFE
:1007780020FA04F301FA05F243EA020321FA04F02D
:1007880001F0004121FA04F220EA020000EBD370E4
:100798005EEA430E08BF20EAD37070BD94F0000FE4
:1007A8000FD101F00046400041EB010111F4801F18
:1007B80008BF013CF7D041EA060195F0000F18BFC9
:1007C800704703F00046520043EB030313F4801F05
:1007D80008BF013DF7D043EA0603704794EA0C0FBF
:1007E8000CEA135518BF95EA0C0F0CD050EA4106D5
:1007F80018BF52EA4306D1D181EA030101F0004152
:100808004FF0000070BD50EA410606BF1046194679
:1008180052EA430619D094EA0C0F02D150EA013685
:1008280013D195EA0C0F05D152EA03361CBF1046C6
:1008380019460AD181EA030101F0004141F0FE4165
:1008480041F470014FF0000070BD41F0FE4141F4E9
:10085800780170BD81F0004102E000BF83F00043E1
:1008680030B54FEA41044FEA430594EA050F08BF43
:1008780090EA020F1FBF54EA000C55EA020C7FEA07
:10088800645C7FEA655C00F0E2804FEA5454D4EB84
:100898005555B8BF6D420CDD2C4480EA020281EA4E
:1008A800030382EA000083EA010180EA020281EA86
:1008B8000303362D88BF30BD11F0004F4FEA0131D8
:1008C8004FF4801C4CEA113102D0404261EB4101E7
:1008D80013F0004F4FEA03334CEA133302D052426D
:1008E80063EB430394EA050F00F0A780A4F1010429
:1008F800D5F1200E0DDB02FA0EFC22FA05F2801863
:1009080041F1000103FA0EF2801843FA05F3594148
:100918000EE0A5F120050EF1200E012A03FA0EFCC7
:1009280028BF4CF0020C43FA05F3C01851EBE371F1
:1009380001F0004507D54FF0000EDCF1000C7EEB0E
:1009480000006EEB0101B1F5801F1BD3B1F5001F4C
:100958000CD349085FEA30004FEA3C0C04F101046B
:100968004FEA445212F5800F80F09A80BCF1004F94
:1009780008BF5FEA500C50F1000041EB045141EA16
:10098800050130BD5FEA4C0C404141EB0101013CDF
:1009980028BFB1F5801FE9D291F0000F04BF0146CE
:1009A8000020B1FA81F308BF2033A3F10B03B3F1A0
:1009B80020020CDA0C3208DD02F1140CC2F10C0230
:1009C80001FA0CF021FA02F10CE002F11402D8BF8E
:1009D800C2F1200C01FA02F120FA0CFCDCBF41EA5A
:1009E8000C019040E41AA2BF01EB0451294330BD29
:1009F8006FEA04041F3C1CDA0C340EDC04F1140406
:100A0800C4F1200220FA04F001FA02F340EA0300DC
:100A180021FA04F345EA030130BDC4F10C04C4F122
:100A2800200220FA02F001FA04F340EA0300294602
:100A380030BD21FA04F0294630BD94F0000F83F44C
:100A4800801306BF81F480110134013D4EE77FEA2F
:100A5800645C18BF7FEA655C29D094EA050F08BF7B
:100A680090EA020F05D054EA000C04BF194610465C
:100A780030BD91EA030F1EBF0021002030BD5FEAA0
:100A8800545C05D14000494128BF41F0004130BDC8
:100A980014F580043CBF01F5801130BD01F000451C
:100AA80045F0FE4141F470014FF0000030BD7FEA8F
:100AB800645C1ABF194610467FEA655C1CBF0B468A
:100AC800024650EA013406BF52EA033591EA030FA1
:100AD80041F4002130BD00BF90F0000F04BF002199
:100AE800704730B54FF4806404F132044FF00005CC
:100AF8004FF0000150E700BF90F0000F04BF002145
:100B0800704730B54FF4806404F1320410F00045AA
:100B180048BF40424FF000013EE700BF42004FEAA5
:100B2800E2014FEA31014FEA02701FBF12F07F4322
:100B380093F07F4F81F06051704732F07F4208BFD9
:100B4800704793F07F4F04BF41F40021704730B5E0
:100B58004FF4607401F0004521F000411CE700BF2C
:100B680050EA010208BF704730B54FF000050AE0AF
:100B780050EA010208BF704730B511F0004502D5B0
:100B8800404261EB41014FF4806404F132045FEAB2
:100B9800915C3FF4D8AE4FF003025FEADC0C18BF5B
:100BA80003325FEADC0C18BF033202EBDC02C2F14D
:100BB800200300FA03FC20FA02F001FA03FE40EADF
:100BC8000E0021FA02F11444BDE600BF4A0011D21A
:100BD80012F5001211D20DD56FF47873B3EB62528F
:100BE8000ED44FEAC12343F0004343EA505323FA9B
:100BF80002F070474FF00000704750EA013002D110
:100C08004FF0FF3070474FF0000070470023014657
:100C18001A46184600F09CB808B50021044600F0B2
:100C2800CBF8044B1868C36B03B19847204600F013
:100C38001FF900BF3010000838B5084B084D5B1B82
:100C48009C1007D0043B1D44013C55F804399847D3
:100C5800002CF9D1BDE8384000F0AAB96C100008A2
:100C68006810000870B50D4E0D4D761BB61006D0F5
:100C7800002455F8043B01349847A642F9D1094E9F
:100C8800094D761B00F08EF9B61006D0002455F8F1
:100C9800043B01349847A642F9D170BD60100008A2
:100CA800601000086810000860100008830730B55D
:100CB80048D0541E002A3FD0CAB2034601E0013C86
:100CC8003AD303F8012B9D07F9D1032C2DD9CDB2C6
:100CD80045EA05250F2C45EA054536D9A4F1100249
:100CE80022F00F0C03F1200EE6444FEA121C03F128
:100CF800100242E9045542E9025510327245F8D112
:100D08000CF1010214F00C0F03EB021204F00F0CAB
:100D180013D0ACF1040323F003030433134442F863
:100D2800045B9342FBD10CF003042CB1CAB21C44FF
:100D380003F8012B9C42FBD130BD64461346002CBE
:100D4800F4D1F9E703461446BFE71A46A446E0E79C
:100D580070B4184C2568D5F848411CB365681F2D38
:100D680025DC38B9AB1C0135656044F82310002038
:100D780070BC704704EB850C0228CCF88820D4F8A6
:100D880088614FF0010202FA05F246EA0206C4F849
:100D98008861CCF80831E5D1D4F88C311343C4F814
:100DA8008C31DFE705F5A674C5F84841D6E74FF062
:100DB800FF30DDE7301000082DE9F84F2B4B1F6896
:100DC800D7F848612DED028BC6B108EE100A8B46A4
:100DD8004FF001084FF000097468651E0ED4013405
:100DE80006EB8404BBF1000F0CD0D4F800315B454E
:100DF80008D0013D6B1CA4F10404F3D1BDEC028BB7
:100E0800BDE8F88F73682268013BAB420CBF756080
:100E1800C4F80090002AECD0D6F88801D6F804A0CF
:100E280008FA05F101420BD190477268524513D177
:100E3800D7F84831B342DCD01E46002ECCD1DDE7CE
:100E4800D6F88C0101420CD1D4F8801018EE100AA3
:100E5800904772685245EBD0D7F84861002EBBD155
:100E6800CCE7D4F880009047DFE700BF30100008D7
:100E7800FEE700BF0000000080B5FFF735FB284BF8
:100E8800284E1968284F00221A601A6842F08062BA
:100E98001A60FFF7F9F9FFF74BFAFFF7F3FAFFF7D4
:100EA800BFFA224B224A0221D9601A615E619A6810
:100EB800204942F001029A608B6817A5D5E90045E0
:100EC80043F004038B60708880B24000A7FB0023C6
:100ED800C01A03EB5000C00AFFF70EFE22462B464D
:100EE800FFF78EFBFFF772FE80B2F080B08880B209
:100EF8004000A7FB0023C01A03EB5000C00AFFF70D
:100F0800FBFD22462B46FFF77BFBFFF75FFE80B217
:100F18003081D8E7AFF300806666666666660A4089
:100F280000040048540400200101100000000240A1
:100F38004000045000000450DFF834D0002103E0E2
:100F48000C4B5B58435004310B480C4B42189A42E7
:100F5800F6D30B4A02E0002342F8043B094B9A42BD
:100F6800F9D3FFF7C1FAFFF77DFEFFF785FFFEE72C
:100F7800008002206C1000080000002038040020C7
:100F88003804002060040020FEE70000024B13B183
:100F98000248FFF73BBE704700000000410C000804
:100FA80000000000F8B500BFF8BC08BC9E467047BA
:0C0FB800F8B500BFF8BC08BC9E467047AE
:100FC4003A3D0A3D0F3D243D323D023D053D133D72
:100FD4000D3D0C3D233D113D263D013D173D083D92
:100FE400093D0000A0860100400D0300801A0600A0
:100FF40000350C0040420F0080841E0000093D00B3
:1010040000127A000024F40000366E010048E80162
:10101400006CDC0200000000000000000102030478
:101024000607080900000000010203041000002064
:101034003A3D0A3D0F3D243D323D023D053D133D01
:101044000D3D0C3D233D113D263D013D173D083D21
:04105400093D000052
:08105800C8F1FF7F0100000058
:08106000950F000801020008D1
:04106800D9010008A2
:10106C000000000000093D001000002000000000FE
:10107C0000000000FC02002064030020CC030020D0
:10108C000000000000000000000000000000000054
:10109C000000000000000000000000000000000044
:1010AC000000000000000000000000000000000034
:1010BC000000000000000000000000000000000024
:1010CC000000000000000000000000000000000014
:1010DC000000000000000000000000000000000004
:1010EC0000000000000000000000000000000000F4
:1010FC0000000000000000000000000000000000E4
:10110C0000000000000000000000000000000000D3
:10111C0000000000000000000100000000000000C2
:10112C000E33CDAB34126DE6ECDE05000B00000087
:10113C0000000000000000000000000000000000A3
:10114C000000000000000000000000000000000093
:10115C000000000000000000000000000000000083
:10116C000000000000000000000000000000000073
:0400000508000F419F
:00000001FF
